:040000008A15BD2B75
:10000800FF00030E83018316BF000A08C0008A019F
:1000180070088312A6007108A5007B08A4007C085C
:10002800A3007D08A2008B1C4328061C4328F1016D
:100038000330710203184128081408160330FB0026
:100048008A30FC005530FD00FD0B2828FC0B2828C1
:10005800FB0B28280000000008100330FB008A3042
:10006800FC005530FD00FD0B3728FC0B3728FB0B37
:10007800372800000000F10A1C2808128B100B1CFE
:100088007C28061E60286A08003A031D6028013093
:10009800EA00081788130B30FB002630FC005D309F
:1000A800FD00FD0B5528FC0B5528FB0B55280000BF
:1000B8000000881308137B28861E7A286A08013AEC
:1000C800031D7A28EA01881708130B30FB00263035
:1000D800FC005D30FD00FD0B6F28FC0B6F28FB0B4F
:1000E8006F2800000000081388137B280B100B10E2
:1000F8008B1E90280B1D90280B118316B50335080D
:10010800003A031D902801308312EB006F08831614
:10011800B500831281010B1183122608F00025080F
:10012800F1002408FB002308FC002208FD008316C8
:0E01380040088A003F0E8300FF0E7F0E090074
:10014600103083120313FD00FD0BA72800000800E2
:10015600083083120313FC002330FD00FD0BB12889
:06016600FC0BB1280800AB
:04016C000000080087
:1001700083160313EC1BBF2883128713C128831235
:10018000871783166C1BC72883120713C92883128D
:1001900007178316EC1ACF2883128712D1288312EF
:1001A000871683166C1AD72883120712D928831250
:1001B000071683163818DF2883120715E1288312E3
:1001C00007118715B62087118316EC19EA288312C8
:1001D0008713EC288312871783166C19F228831271
:1001E0000713F428831207178316EC18FA288312D2
:1001F0008712FC288312871683166C180229831233
:100200000712042983120716831638180A29831245
:1002100007150C29831207118715B620871183163D
:0C022000381C1429AB201529A32008006D
:10022C008316031338106B08EC00B82083163814AF
:02023C000800B8
:08023E00FA1FF2130030080062
:10024600FB14FB1F2D29FF30F300F200F100F00034
:08025600FA0DF20CFF30080064
:0E025E00F201F101F001F801F3010030080097
:10026C007B15FB1F40290130F300F201F101F00175
:08027C00FA0DF20CFF3008003E
:1002840083120313FD01F801700803190034740686
:10029400FA00FA1BFD09FB01F41F5229F409F40AC0
:1002A400F01F5629F009F00A70087404FA00FA1BCA
:1002B4007A297408F802F00D700DF80D7408F80727
:1002C400F00D0630FC00700DF80D74087018F8027B
:1002D400701CF807F00DFC0B6529701CF8077B18DF
:1002E4008829FD1F0034F009F00AF809F80A0034DF
:1002F400F41F8529F01B82297008F800F001732986
:10030400F001F00A0034F009FB0A5B29F80A7408CA
:100314007802031D7329F801F00AF01F7329FF34D2
:020324000800CF
:1003260083120313FA017308031D7A147708031D59
:10033600FA147A080319DF29033A0319AA297A1845
:10034600A729F61FDD29DB29F21FDB29DD29720823
:100356008039FA00F21376088039F6137A06031903
:10036600B8297A080319DB29DD29770873020319EE
:10037600BF29031CD329D729760872020319C62977
:10038600031CD329D729750871020319CD29031C2B
:10039600D329D729740870020319DF290318D7292E
:1003A600FA080319DD29DB29FA080319DB29DD29F7
:1003B60003140800031008000314031508000800BE
:1003C600F529803083160313E700082AC030E700BA
:1003D600082A9430E700082AD430E700082A80303B
:1003E600E700082A831603136708013A0319E4296C
:1003F6006708023A0319E9296708033A0319EC2941
:100406006708043A0319EF29F2296803F000670820
:10041600F0077008E70038147008EC00B82083165F
:0E04260038106908EC00B8208316381408005E
:10043400831603136708831203178D0083168C1326
:0A0444000C1483120C08F0000800ED
:10044E0083120313FB017308031D770803197E2A19
:10045E0072087606FA007708F3077E30031C3B2AF3
:10046E00F3020318812A3E2AF302031C842A72081F
:10047E00F8007108FC007008FD00F817F61703105D
:10048E00F201F101F0011830A1007D1C582A740808
:10049E00F00775080318750FF10776080318760F25
:1004AE00F207F20CF10CF00CF80CFC0CFD0C031026
:1004BE00A10B4C2AF21B682AF80DF00DF10DF20D6E
:1004CE00F3037B1B701C7A2AF81F7A2AF00A031991
:1004DE00F10A0319F20A031D7A2AF20CF10CF00C40
:1004EE00F30A0319812AFA1FF2130030862A01300B
:1004FE002F21862A02302321862A0430362100003D
:02050E000800E3
:100510009A2A803083160313E700AD2AC030E70023
:10052000AD2A9430E700AD2AD430E700AD2A803000
:10053000E700AD2A831603136708013A0319892AD5
:100540006708023A03198E2A6708033A0319912AA9
:100550006708043A0319942A972A6803F000670889
:10056000F0077008E7007008EC00B8208316381018
:10057000EA016A086907840000080319C72A6A08A3
:10058000690784000008EB001621EA0AB92A38142A
:02059000080061
:06059200FB15FF3008001C
:10059800831603136708F2007208F100F20A68086C
:1005A800F000E80A700884000008F0007108840070
:1005B800700880007108840000080319E42AD02A12
:0605C8006708F0000800C6
:1005CE00A1017208031DFC2A7108F2007008F100E7
:1005DE00F001A1157208031DFC2A7108F200F10149
:1005EE00A1112116720803190A2B2108F302031D0B
:1005FE00031C0E2B0310F21B122BF00DF10DF20D3E
:10060E00F30B022B0E2B0130FC002F21152B023089
:0E061E00FC003621152B0430FC001F210800C3
:10062C0083160313DE01DF015308DA005408DB00E4
:10063C005508DC005608DD005D08FF3A031D302B21
:10064C005C08FF3A031D302B5B08FF3A031D302B6F
:10065C005A08FF3A031D3A2B5708E700B130E8005F
:10066C00CC220330F0001B2D0130D800DC1F492BAD
:10067C0080305C06F0007008DC00D80A5708840053
:10068C002D308000D70A0030F0005D06031D582B7A
:10069C0070085C06031D582B70085B06031D582B55
:1006AC005A08003A031D612B5708E7006830E80030
:1006BC00CC22F0011B2D5D08FF3A031D6F2B5C084B
:1006CC00003A031D6F2B5B08003A031D6F2B5A0871
:1006DC00003A031D792B5708E7006430E800CC2260
:1006EC005808F0001B2D0030F4000030F5000030ED
:1006FC00F6007F30F7005A08F0005B08F1005C0848
:10070C00F2005D08F3009321013003180030F00073
:10071C0070080319AE2B83165A08F0005B08F10021
:10072C005C08F2005D08F3000030F4000030F500C6
:10073C002030F6008230F700272270088316DA008A
:10074C007108DB007208DC007308DD00DF03792B15
:10075C0083160030F4000030F5002030F6008230B3
:10076C00F7005A08F0005B08F1005C08F2005D0825
:10077C00F30093210130031C0030F00070080319C2
:10078C00E42B83165A08F0005B08F1005C08F200B9
:10079C005D08F300CD30F400CC30F5004C30F600A1
:1007AC007B30F700272270088316DA007108DB0013
:1007BC007208DC007308DD00DF0AAE2B8316FF30F5
:1007CC005A05F800FF305B05F9007F305C05FA0034
:1007DC0000305D05FB007808F4007908F5007A0814
:1007EC00F6007B08F700F40DF50DF60DF70D7410FF
:1007FC0000305A05F00000305B05F10000305C055C
:10080C00F200FF305D05F3007008DA007108DB00C0
:10081C007208DC007308DD0074085A04F0007508D7
:10082C005B04F10076085C04F20077085D04F300C9
:10083C007008DA007108DB007208DC007308DD0058
:10084C007F305D02F0007008D9000130DD007008C7
:10085C00F4005A08F0005B08F1005C08F2005D0837
:10086C00F30074080319412CF00DF10DF20DF30D8A
:10087C007010FF3E382C7008DA007108DB0072082B
:10088C00DC007308DD005D08303EF0005708840082
:10089C0070088000D70A80305F06F0008030013A83
:1008AC007002031C622C8030063AF00080305F0628
:1008BC007002031C622C692C570884002E308000B7
:1008CC00D70A0130DE000630D9005908003A031966
:1008DC00C72CDD015A08F0005B08F1005C08F2003F
:1008EC005D08F300F00DF10DF20DF30D7010F00D2D
:1008FC00F10DF20DF30D70105A08F0075B08031898
:10090C005B0FF1075C0803185C0FF2075D08031816
:10091C005D0FF3077008DA007108DB007208DC0069
:10092C007308DD005A08F0005B08F1005C08F20067
:10093C005D08F300F00DF10DF20DF30D7010700861
:10094C00DA007108DB007208DC007308DD005D085A
:10095C00303EF0005708840070088000D70A5E080B
:10096C00003A031DC52CDF035F08003A031DC52C9C
:10097C00570884002E308000D70A0130DE00D903DE
:10098C006B2CFF30570784000008303A031DD02C25
:10099C00D703C72CFF305707840000082E3A031DDD
:1009AC00D82CD7035F08003A0319172D5708840079
:1009BC0065308000D70A80305F06F0008030003A46
:1009CC0070020318F12C570884002D308000D70AD0
:1009DC005F08003CDF005F08D9008030093AF00066
:1009EC0080305F0670020318082D0A30F400590895
:1009FC00F00042213030F00783165708840070084D
:100A0C008000D70A0A30F4005908F0004221780817
:100A1C00F0003030F007831657088400700880000F
:0C0A2C00D70A570884008001F001080080
:100A380083160313871107110712871207138713E9
:100A48008312871107118713071387120712AB2028
:100A5800AB20AB20871607168715B6208711AB2069
:100A68008715B6208711AB208715B6208711AB20D4
:100A780007128715B6208711AB208715B620871176
:100A8800871287178715B6208711AB20871307169B
:100A98008715B620871107128715B6208711AB2056
:100AA8008715B620871107168715B6208711AB2042
:100AB80007128715B6208711871707178716071695
:0E0AC8008715B6208711AB208316381408005E
:100AD600831603135408013A031D742D0130EC00EC
:100AE600B82002308316E7000130E8005308E90019
:040AF600882208004A
:100AFA0083160313D5018030F0008030D41B7F3079
:100B0A007002031D8A2D540855020318A42D550896
:100B1A00D63EE60055085307E7001A228316031348
:100B2A0066088400700880001A30FC00F830FD0066
:100B3A00FD0B9D2DFC0B9D2D0000D50A802DD63076
:040B4A00F0000800AF
:100B4E00831603178C1CAD2D0000A72D031353081D
:100B5E00831203178D008316031354088312031791
:100B6E008C0083168C130C150B08F0008B1355306C
:100B7E008D00AA308D008C14F01BC72D8B13C82D41
:060B8E008B170C1108009A
:100B9400831603135308F2007208F000F20A700877
:100BA400840000080319D72DCE2D53087202F000DB
:0C0BB4000130F002F101031CF103080005
:0E0BC000073083120313FD00FD0BE42D080027
:100BCE00831203137008F8007108F000F101F201AE
:100BDE00F301FB01FC019630F300FA017008F100FD
:0C0BEE007808F000F801F201E72208008E
:100BFA00831603135408013A031D062E0130EC0034
:100C0A00B82001308316E7000130E8005308E900F4
:040C1A008822080024
:100C1E00A03083120313F0000F30F100F201F30144
:020C2E000800BC
:100C3000831203132230FC00F801F901FA01FB01D1
:100C4000FC0303194E2E0310FB0CFA0CF90CF80CE4
:100C5000F30CF20CF10CF00C031C202EFC03031916
:100C6000402E7408F80775080318750FF907760801
:100C70000318760FFA0777080318770FFB07242E5F
:100C80007408F80775080318750FF9077608031834
:0E0C9000760FFA0777080318770FFB070800A6
:100C9E00013083160313EC00B82001308316E700F1
:100CAE000130E8002830E90088220230E7000730E2
:100CBE00E800DF30E900E3210230E7000830E80009
:080CCE004330E900E3210800B6
:100CD60083160313D303D3035308003C0318782E5B
:100CE600D3030000000000006F2E0000000000008B
:060CF600000000000800F0
:100CFC0083120313F801F9011030FC00710DF80D8B
:100D0C00F90D7408F8027508031C750FF902031825
:100D1C00962E7408F80775080318750FF907031059
:0A0D2C00F00DF10DFC0B842E080001
:0E0D36008316031337088A003608820008006F
:100D4400831203137408003A031DBD2E7508003A7C
:100D5400031DBD2E7608003A031DBD2E7708003A08
:100D6400031DBD2EFF30F000FF30F1007F30F20094
:100D7400FF30F300582F83120313770803194C2F05
:100D8400730803194F2F720876068039FA00F21798
:100D9400F617A1017208F8007108FC007008FD0044
:100DA4007408FD027508031C750FFC027608031C09
:100DB400760FF802F801FC01FD01031CE82E031074
:100DC400F20CF10CF00CF80C0130A1007708F302DE
:100DD400031CF22E7E302107F3070318522FF72E3F
:100DE4007E302107F307031C552F1830FA07FD0D39
:100DF400FC0DF80DF00DF10DF20DA10D7408F002CB
:100E04007508031C750FF1027608031C760FF202B5
:100E1400760DA104211C102F7D141B2F7408F007DC
:100E240075080318750FF10776080318760AF20798
:100E34007D10FA031F307A05031DF92E7B1B7D1CE0
:100E4400422F0310F00DF10DF20DA10D7408F00204
:100E54007508031C750FF1027608031C760FF20265
:100E6400760D21040139FD070318FC0A0319F80A59
:100E7400031D422FF80CFC0CFD0CF30A0319522F2E
:100E8400FA1FF8137808F2007C08F1007D08F000DE
:100E94000030572F0130C922572F02302F21572FEE
:0E0EA40004302321572F0830362100000800AB
:100EB20083120313881483164808003C031D632F12
:100EC2004708003C0318722F0230FC004B30FD0033
:100ED200FD0B692FFC0B692F0130C702031CC803ED
:080EE2005C2F83128810080048
:100EEA0083120313F10183164708710203189E2F18
:100EFA00831208140330FB008A30FC005530FD00D1
:100F0A00FD0B852FFC0B852FFB0B852F00000000A6
:100F1A0008100330FB008A30FC005530FD00FD0B41
:100F2A00942FFC0B942FFB0B942F00000000F10A66
:040F3A00782F080004
:100F3E00831603134708F0004808F100E725003038
:100F4E00F4004030F5001C30F6008B30F7002722FD
:100F5E000030F4000030F5000030F6008930F70064
:100F6E00A2260030F4000030F5002030F60082306A
:060F7E00F700A2260800A6
:100F8400FF3083160313BC00FF30BD00FF30BE00EA
:100F9400FF3083129F01C0309F046E09F000700877
:0E0FA40083169F051F179F1783121F14080046
:100FB20083120313081583164808003C031DE32F10
:100FC2004708003C0318F22F0230FC004B30FD00B2
:100FD200FD0BE92FFC0BE92F0130C702031CC803EC
:080FE200DC2F83120811080046
:0C0FEA008B170B16831603130117080069
:060FF6008B178B150800AB
:1010000083120313FB01FA01F901F801A001730D2A
:10101000F80D7408F8027508031C750FF9027608BC
:10102000031C760FFA027708031C770FFB020001FE
:10103000031C0130A002F30D0730FC00730DF80D06
:10104000F90DFA0DFB0DA00D7408731C3928F80278
:101050007508031C750FF9027608031C760FFA0257
:101060007708031C770FFB020001031C0130A0026C
:101070004A28F80775080318750FF907760803184A
:10108000760FFA0777080318770FFB07000103189C
:101090000130A007F30DFC0B1E28720DF80DF90DA1
:1010A000FA0DFB0DA00D7408731C6828F802750872
:1010B000031C750FF9027608031C760FFA027708F5
:1010C000031C770FFB020001031C0130A0027928EA
:1010D000F80775080318750FF90776080318760FD7
:1010E000FA0777080318770FFB0700010318013090
:1010F000A007F20D0730FC00720DF80DF90DFA0D86
:10110000FB0DA00D7408721C9728F8027508031CCB
:10111000750FF9027608031C760FFA027708031C94
:10112000770FFB020001031C0130A002A828F8077A
:1011300075080318750FF90776080318760FFA0774
:1011400077080318770FFB07000103180130A00789
:10115000F20DFC0B7C28710DF80DF90DFA0DFB0D4D
:10116000A00D7408721CC628F8027508031C750FC0
:10117000F9027608031C760FFA027708031C770F32
:10118000FB020001031C0130A002D728F8077508F4
:101190000318750FF90776080318760FFA07770812
:1011A0000318770FFB07000103180130A007F10DAA
:1011B0000730FC00710DF80DF90DFA0DFB0DA00DB7
:1011C0007408711CF528F8027508031C750FF902E4
:1011D0007608031C760FFA027708031C770FFB02D0
:1011E0000001031C0130A0020629F8077508031846
:1011F000750FF90776080318760FFA0777080318B2
:10120000770FFB07000103180130A007F10DFC0B5D
:10121000DA28700DF80DF90DFA0DFB0DA00D74080C
:10122000711C2429F8027508031C750FF902760851
:10123000031C760FFA027708031C770FFB020001EC
:10124000031C0130A0023529F80775080318750F33
:10125000F90776080318760FFA0777080318770F4F
:10126000FB07000103180130A007F00D0730FC0058
:10127000700DF80DF90DFA0DFB0DA00D7408701C22
:101280005329F8027508031C750FF9027608031C30
:10129000760FFA027708031C770FFB020001031C8C
:1012A0000130A0026429F80775080318750FF907C3
:1012B00076080318760FFA0777080318770FFB07ED
:1012C000000103180130A007F00DFC0B382970183D
:1012D00077297408F80775080318750FF907760859
:1012E0000318760FFA0777080318770FFB07080033
:1012F0008A110F268A15E830F4000330F500F60154
:10130000F7018A1118268A1570088316CF00710814
:10131000D0007208D1007308D2004708F4004808D2
:10132000F500F601F701002070088316CF00710860
:10133000D0007208D1007308D2007008F50071085F
:10134000F6007208F7007308F800F80CF70CF60CBA
:10135000F50CF813F80CF70CF60CF50CF8137508EF
:10136000F0007608F1007708F2007808F300F30C3B
:10137000F20CF10CF00CF3137008CB007108CC00E8
:101380008A110F268A1583164908F4004A08F500C9
:10139000F601F7018A1118268A1583164B08F90001
:1013A0004C08FA00FB01FC010330F8007908F40056
:1013B0007A08F5007B08F6007C08F7007808031926
:1013C000E829F40DF50DF60DF70D7410FF3EDF2939
:1013D000002070088316CF007108D0007208D10079
:1013E0007308D2000A30F4000030F5004B08F0001A
:1013F0004C08F1008A117E268A1570088316CB00EE
:101400007108CC0000307102031D082A03307002FD
:1014100003180B2A602A390884005208003C031D77
:101420001B2A5108003C031D1B2A5008003C031DC9
:101430001B2A4F08003C03185E2A3B0880044C0816
:101440000319342ACD01CE0100304E02031D2A2A91
:101450004C084D020318342AD3018A116B268A15D1
:10146000CD0A0319CE0A242A4B08D3008A116B2611
:101470008A153A0880054C080319502ACD01CE017F
:1014800000304E02031D462A4C084D020318502A14
:10149000D3018A116B268A15CD0A0319CE0A402A78
:1014A0004B08D3008A116B268A150130CF02031C2A
:1014B000D002031CD102031CD2020D2A3A08800577
:0214C000080022
:1014C200831603134708D3004808D4008A117D25E8
:1014D2008A157008D3000130D4008A11FD258A15BF
:1014E2004908D3004A08D4008A117D258A1570085C
:1014F200D300D4018A116B258A15CC014B084C020A
:101502000318932A0630FB001330FC00AD30FD00B7
:10151200FD0B892AFC0B892AFB0B892A000000009B
:06152200CC0A7F2A08003C
:10152800831603134708D3004808D4004908D50098
:101538004A08D600CB30D7008A1116238A15D00165
:1015480083122708003A031DAF2A8A114F268A15ED
:0C15580001308312A700CB30F000080027
:101564008A119B268A150A128000840AB60A031976
:0A157400B70AF003031DB22A0800B5
:10157E008A111C258A150130EC008A11B8208A15B3
:0E158E000C308316EC008A11B8208A15080074
:10159C00013083160313EC008A11B8208A153730FA
:1015AC008316D300D4018A11FD258A155330D3003C
:0A15BC00D4018A116B258A1508007E
:1015C60083160313C9014808D3008A11CA258A1550
:1015D6008030F200803071067202031DF42A700812
:1015E600490203180D2B4708D30049084807840011
:1015F6000008D4008A11A7258A150313C70A1A30D2
:10160600FC00F830FD00FD0B062BFC0B062B000042
:06161600C90AE62A0800E3
:10161C008B178B16831603138112480883128100D3
:10162C0083164908B50049088312EF008316470852
:10163C00013A031D232B8115752B8111462B0111AA
:10164C0081100110752B011181100114752B0111E2
:10165C0081140110752B011181140114752B0115C6
:10166C0081100110752B011581100114752B0115BA
:10167C0081140110752B011581140114752B752B18
:10168C004708023A0319252B4708043A0319292B5A
:10169C004708083A03192D2B4708103A0319312B28
:1016AC004708203A0319352B4708403A0319392BC0
:1016BC000030C71BFF30F00000307006031D682B94
:1016CC008030470603193D2B0030C71BFF30013A11
:1016DC00031D722B003047060319412B452B0800C4
:1016EC00831603134708B9004808F1000130F000D5
:1016FC0071080319852BF00D7010FF3E7F2B7008BD
:10170C00BB00F0097008BA008030470784007008ED
:0A171C0080058413700880050800A2
:10172600831203139F01C0309F046E09F0007008F6
:1017360083169F051F179F174708F000F00D7010BE
:10174600F00D7010F00D7010700883129F041F14B6
:101756008A11E0258A151F151F1DB32B0000AF2B1C
:101766001F101E08F100F00183161E08F004003059
:04177600F104080072
:10177A004A2501308316031385003130860087011C
:10178A008801831208108810081108138813520858
:10179A008316C7004330C800E32283126C088316FD
:1017AA00C700A030C800E3220830C7000330C800D1
:1017BA007623BF22CE228A11C2278A158A11F527DB
:1017CA008A158A11FB278A150030C700C8017A30AA
:1017DA00C9000E2383126B08003A031D162C8316C8
:1017EA00C70193237008C7007108C8008A119F2790
:1017FA008A1570088316C1007108C2007208C300F6
:10180A007308C40083126B08003A03190D2CEF2BDE
:10181A006D08003A031D152CCE2201308312ED000B
:10182A00E82CB0308316C7000430C800C830C9009D
:10183A00CA0178218312A70183164108C70042080A
:10184A00C8004308C9004408CA00942270088316D5
:10185A00D300D4018A116B258A154108F400420885
:10186A00F5004308F6004408F7000030F0000030A5
:10187A00F1001C30F2008430F3008A1193218A159A
:10188A00013003180030F00070080319552CE830B5
:10189A008316C7000330C8008A11D9278A159A2CE3
:1018AA0083164108F4004208F5004308F60044088C
:1018BA00F7000030F0000030F1001C30F2008430F4
:1018CA00F3008A1193218A150130031C0030F000BD
:1018DA0070080319942C83164108F4004208F50095
:1018EA004308F6004408F7000030F0000030F10029
:1018FA001430F2008430F3008A1193218A150130E2
:10190A0003180030F00070080319942CE83083168D
:10191A00C7000330C8008A1159278A159A2C033048
:10192A008316C7008A1175278A158316031341087F
:10193A00F4004208F5004308F6004408F7000030B6
:10194A00F0000030F1001430F2008430F3008A1104
:10195A0093218A15013003180030F000700803192A
:10196A00C42C0B30FB002630FC005D30FD00FD0B63
:10197A00BC2CFC0BBC2CFB0BBC2C00000000A030C8
:10198A008316D3008A11CA258A157008C500710802
:10199A00C6004330D3008A11CA258A157008C800C8
:1019AA00831252088316C70083126C088316C90073
:1019BA000130CB004508CA0061228312EB01ED0118
:0A19CA006F088316B500EF2BE92C1F
:101A940027308400453083120313F000EF3083169F
:101AA400B6000C30B700B222A0308400113003130A
:101AB400F00034308316B6000D30B700B2226C301B
:101AC400840002300313F000FE308316B6000730A2
:101AD400B700B222B130840004300313F000453063
:101AE4008316B6000D30B700B2226E308400013088
:101AF4000313F00003308316B6000030B700B2229F
:021B04000800D7
:020006000F34B5
:020FFC001734A8
:020FFE000034BD
:0219DE000034D3
:1019E000543465346D347034653472346134743415
:0E19F00075347234653420343A3420340034B7
:1019FE004D347234203479346F34753472344E343D
:081A0E0061346D3465340034CD
:101A160045346234693478346134203431343034B6
:0E1A26006D346734203432342F346A34003487
:021A340000347C
:101A36004834613476346534203461342034673474
:101A46006F346F3464342034743469346D346534DF
:021A560000345A
:081A580049344E3446340034D9
:041A600030340034EA
:021A640000344C
:021A660000344A
:101A680041347234693463346534703474342034E6
:101A7800313430346D346734203433342F346A349D
:021A8800003428
:081A8A004E3461344E34003487
:00000001FF
